:020000040000FA
:040000008FEF3DF051
:1078F000C5841200300ED36E040ED26E000E9B6E45
:107900001200BB68000EBC6E9E92040EBA6E12008E
:107910003E383F065B4F666D7D077F67280081A874
:1079200094EF3CF097EF3CF0010E98EF3CF0000E26
:10793000120081AA9EEF3CF0A1EF3CF0010EA2EFF5
:107940003CF0000E120081A0A8EF3CF0ABEF3CF041
:10795000010EACEF3CF0000E120081A4B2EF3CF03F
:10796000B5EF3CF0010EB6EF3CF0000E120081A224
:10797000BCEF3CF0BFEF3CF0010EC0EF3CF0000E5E
:107980001200000EC76E280EC66E000EC56E080EE1
:10799000CB6E090EC86E1200196E19C0C9FFC7B0B0
:1079A000D4EF3CF0D6EF3CF0CFEF3CF01200000EED
:1079B000C16E040EC06E000EC36E000EC46E0D0EBE
:1079C000C26E12005DEC3DF07AEC3CF0EFEC3CF066
:1079D00081EC3CF0FFEC3CF0D7EC3CF012003C0EAC
:1079E000BD6E000EB66E800EB76E010EB96E000E43
:1079F000BF6E7F0EBE6EFC0E0F01491712003C0ECB
:107A0000666E000E646E800E656E010E636E000E73
:107A1000686E7F0E676EE70E0F014917120000D0E7
:107A200000D000D000F0C282C2B219EF3DF01BEFCF
:107A30003DF014EF3DF0C4CF17F0186A1200C5CF27
:107A400019F01F0E1916D8A428EF3DF02AEF3DF0CB
:107A50001FEF3DF0C7B22FEF3DF031EF3DF01FEFCC
:107A60003DF012001C6E47EC3DF01C50CCEC3CF09D
:107A70001FEC3DF01A50CCEC3CF01FEC3DF01B50DD
:107A8000CCEC3CF01FEC3DF078EC3CF012009E9604
:107A9000C580C7B44EEF3DF050EF3DF049EF3DF0EB
:107AA000C5CF19F01F0E1916D8A459EF3DF05BEFA2
:107AB0003DF049EF3DF09E961200000E896E000EDB
:107AC0008A6E000E8B6EDB0E926EF00E936E990E28
:107AD000946E980E0F013A6F000E396F0B0E386FCF
:107AE000000E616EF18E12001B6E4C0E1B18D8A496
:107AF0007CEF3DF07EEF3DF087EF3DF019C067FF72
:107B00001AB002D0809A01D0808A8EEF3DF019C061
:107B1000BEFF1AB002D0809401D080841200100EF3
:107B2000F66E790EF76E000EF86E00EE01F010EEB4
:107B30000EF00900F5CFEEFFE550E150FAE100EE5E
:107B40000FF00A0EEE6AE806FDE1000EF86E000185
:107B50009CEF3EF0000E1B6E000E1A6E8186030E27
:107B6000196ECA0EE82EFED7192EFCD78196190E73
:107B7000196EEE0EE82EFED7192EFCD700D01A4A49
:107B80001B2A1B5009E1320E1A5CD8A0CAEF3DF047
:107B9000CCEF3DF0AEEF3DF01200000E1B6E000E7C
:107BA0001A6E8186030E196E550EE82EFED7192E19
:107BB000FCD700F08196190E196EEE0EE82EFED756
:107BC000192EFCD700D01A4A1B2A1B5009E1320E8D
:107BD0001A5CD8A0EEEF3DF0F0EF3DF0D1EF3DF0B4
:107BE0001200000E206E000E1F6E090E1A6E010E9E
:107BF0001F24D96E000E2020DA6EDF501B6E400E5F
:107C000032EC3DF0030E1E6E8A0E1D6E560EE82EEF
:107C1000FED71D2EFCD71E2EFAD71F4A202A1F5032
:107C20002010D8B416EF3EF018EF3EF0F5EF3DF01F
:107C30001200000E1A6E000E1B6E400E32EC3DF06C
:107C40001FEC3DF0010E1A6E000E1B6E400E32EC62
:107C50003DF01FEC3DF0020E1A6E000E1B6E400E42
:107C600032EC3DF01FEC3DF0050E1A6E3E0E1B6E21
:107C7000400E32EC3DF01FEC3DF0060E1A6E000E89
:107C80001B6E400E32EC3DF012008BBA4AEF3EF014
:107C90004DEF3EF0010E4EEF3EF0000EFF0A196E62
:107CA000193A19468B501918DF0B19188B6E8BBCBB
:107CB0005CEF3EF05FEF3EF0010E60EF3EF0000E35
:107CC000FF0A196E193A194619468B501918BF0B3D
:107CD00019188B6E020E1A6E860E196E990EE82E0A
:107CE000FED7192EFCD71A2EFAD700F08BBA7BEFED
:107CF0003EF07EEF3EF0010E7FEF3EF0000EFF0AF9
:107D0000196E193A19468B501918DF0B19188B6E1A
:107D10008BBC8DEF3EF090EF3EF0010E91EF3EF008
:107D2000000EFF0A196E193A194619468B50191898
:107D3000BF0B19188B6E1200E2EC3CF0C1EC3CF06A
:107D400019EC3EF045EC3EF0FF0E196E010E1A6E76
:107D50004C0E74EC3DF0FA0E196E010E1A6E520EB6
:107D600074EC3DF00FEC3DF018BEC0EF3EF0185043
:107D700009E1290E175CD8A0C0EF3EF0C2EF3EF03B
:107D8000E0EF3EF0AAEC3DF099EC3CF00009D8B4ED
:107D9000CCEF3EF0CEEF3EF008EF3FF08B8A134A77
:107DA000142A1A0E226E5E0E216E6E0EE82EFED77B
:107DB000212EFCD7222EFAD700D08B9A08EF3FF065
:107DC000CDEC3DF08FEC3CF00009D8B4EAEF3EF08A
:107DD000ECEF3EF0FCEF3EF08B8C114A122A1A0EAB
:107DE000226E5E0E216E6E0EE82EFED7212EFCD77F
:107DF000222EFAD700D08B9C150E226E4B0E216ED0
:107E0000BE0EE82EFED7212EFCD7222EFAD700D0A8
:107E1000B7EC3CF00009D8B410EF3FF012EF3FF0A0
:107E20006AEF3FF0FA0E196E010E1A6E4C0E74ECEA
:107E30003DF0690E196E010E1A6E520E74EC3DF093
:107E40000FEC3DF018BE2EEF3FF0185009E1290E5F
:107E5000175CD8A02EEF3FF030EF3FF034EF3FF04B
:107E6000AAEC3DF036EF3FF0CDEC3DF08FEC3CF06E
:107E70000009D8B43EEF3FF040EF3FF04FEF3FF046
:107E80008B8C134A142A0B0E226E260E216E5E0E68
:107E9000E82EFED7212EFCD7222EFAD78B9C99EC08
:107EA0003CF00009D8B457EF3FF059EF3FF0A4EF92
:107EB0003EF08B8A114A122A0B0E226E260E216E7C
:107EC0005E0EE82EFED7212EFCD7222EFAD78B9AF3
:107ED000A4EF3EF0ADEC3CF00009D8B472EF3FF0F7
:107EE00074EF3FF0CCEF3FF0690E196E010E1A6E81
:107EF0004C0E74EC3DF0FA0E196E010E1A6E520E15
:107F000074EC3DF00FEC3DF018BE90EF3FF01850D0
:107F100009E1290E175CD8A090EF3FF092EF3FF0F7
:107F200096EF3FF0AAEC3DF098EF3FF0CDEC3DF03E
:107F30008FEC3CF00009D8B4A0EF3FF0A2EF3FF087
:107F4000B1EF3FF08B8C134A142A0B0E226E260ED3
:107F5000216E5E0EE82EFED7212EFCD7222EFAD7F8
:107F60008B9C99EC3CF00009D8B4B9EF3FF0BBEF23
:107F70003FF0A4EF3EF08B8A114A122A0B0E226EBC
:107F8000260E216E5E0EE82EFED7212EFCD7222E65
:107F9000FAD78B9AA4EF3EF0A3EC3CF00009D8B4DA
:107FA000D4EF3FF0D6EF3FF0A4EF3EF0030E226E89
:107FB000490E216E660EE82EFED7212EFCD7222E0A
:107FC000FAD700D0FF0E196E000E1A6E4C0E74EC2C
:107FD0003DF0FF0E196E000E1A6E520E74EC3DF05D
:107FE000F1EC3DF0660E226E760E216EC10EE82E8B
:107FF000FED7212EFCD7222EFAD700F000EF00F09A
:020000040020DA
:08000000FFFFFFFFFFFFFFFF00
:020000040030CA
:0E000000FF231F3CFFBF85FF0FC00FE00F4026
:00000001FF
