:020000040000FA
:040000009DEF3EF042
:107B6E00C58412003E383F065B4F666D7D077F670A
:107B7E00300ED36E040ED26E000E9B6E1200BB68DA
:107B8E00000EBC6E9E92040EBA6E120081A0D2EF51
:107B9E003DF0D5EF3DF0010ED6EF3DF0000E120098
:107BAE0081A4DCEF3DF0DFEF3DF0010EE0EF3DF0A4
:107BBE00000E120081A2E6EF3DF0E9EF3DF0010E5E
:107BCE00EAEF3DF0000E1200000EC76E280EC66ED4
:107BDE00000EC56E080ECB6E090EC86E12009E9674
:107BEE00C5809EA6FDEF3DF0FFEF3DF0F8EF3DF0B6
:107BFE009E961200176E17C0C9FFC7B009EF3EF070
:107C0E000BEF3EF004EF3EF01200000EC16E040EBC
:107C1E00C06E000EC36E000EC46E0D0EC26E12004C
:107C2E006CEC3EF0BFEC3DF024EC3EF0C6EC3DF0CB
:107C3E0034EC3EF00CEC3EF012003C0EBD6E000E2D
:107C4E00B66E800EB76E010EB96E000EBF6E7F0E51
:107C5E00BE6EFC0E0F01491712003C0E666E000E32
:107C6E00646E800E656E010E636E000E686E7F0E82
:107C7E00676EE70E0F0149171200C5CF17F01F0EE2
:107C8E001716D8A44DEF3EF04FEF3EF044EF3EF006
:107C9E00C7B254EF3EF056EF3EF044EF3EF0120006
:107CAE001A6EF6EC3DF01A5001EC3EF044EC3EF04C
:107CBE00185001EC3EF044EC3EF0195001EC3EF051
:107CCE0044EC3EF0B7EC3DF01200000E896E000E53
:107CDE008A6E000E8B6EDB0E926E9368180E946E8B
:107CEE00800E0F013A6F380E396F0B0E386F000E83
:107CFE00616EF18E1200196E4C0E1918D8A48AEF0F
:107D0E003EF08CEF3EF095EF3EF017C067FF18B0D7
:107D1E0002D0809A01D0808A9CEF3EF017C0BEFF41
:107D2E0018B002D0809401D080841200720EF66ECC
:107D3E007B0EF76E000EF86E00EE01F010EE0CF0FA
:107D4E000900F5CFEEFFE550E150FAE100EE0DF03F
:107D5E000A0EEE6AE806FDE1000EF86E00017EEFF7
:107D6E003FF0000E186E000E196E400E57EC3EF0EE
:107D7E0044EC3EF0010E186E000E196E400E57ECDC
:107D8E003EF044EC3EF0020E186E000E196E400EE0
:107D9E0057EC3EF044EC3EF0050E186E3E0E196E9A
:107DAE00400E57EC3EF044EC3EF0060E186E000E00
:107DBE00196E400E57EC3EF01200000E1E6E000EB5
:107DCE001D6E000E1E6E000E1D6E090E186E010E3B
:107DDE001D24D96E000E1E20DA6EDF50196E400E75
:107DEE0057EC3EF0030E1C6E8A0E1B6E560EE82EDE
:107DFE00FED71B2EFCD71C2EFAD78BBA09EF3FF0FD
:107E0E000CEF3FF0010E0DEF3FF0000EFF0A1B6E60
:107E1E001B3A1B468B501B18DF0B1B188B6E1D4A13
:107E2E001E2A1EBE24EF3FF01E5009E10C0E1D5CF3
:107E3E00D8A024EF3FF026EF3FF0ECEF3EF012001B
:107E4E008BBA2CEF3FF02FEF3FF0010E30EF3FF0EB
:107E5E00000EFF0A176E173A17468B501718DF0BD6
:107E6E0017188B6E8BBC3EEF3FF041EF3FF0010ECB
:107E7E0042EF3FF0000EFF0A176E173A17461746ED
:107E8E008B501718BF0B17188B6E020E186E860EBE
:107E9E00176E990EE82EFED7172EFCD7182EFAD78E
:107EAE0000F08BBA5DEF3FF060EF3FF0010E61EF37
:107EBE003FF0000EFF0A176E173A17468B50171831
:107ECE00DF0B17188B6E8BBC6FEF3FF072EF3FF02E
:107EDE00010E73EF3FF0000EFF0A176E173A1746AA
:107EEE0017468B501718BF0B17188B6E120017EC16
:107EFE003EF0EBEC3DF0B8EC3EF027EC3FF0FF0E21
:107F0E00176E010E186E4C0E82EC3EF0FA0E176EC6
:107F1E00010E186E520E82EC3EF0E1EC3DF00009BF
:107F2E00D8B49CEF3FF09EEF3FF0AEEF3FF0FA0E6D
:107F3E00176E010E186E4C0E82EC3EF0690E176E27
:107F4E00010E186E520E82EC3EF086EF3FF0D7EC2B
:107F5E003DF00009D8B4B6EF3FF0B8EF3FF0C8EFF0
:107F6E003FF0690E176E010E186E4C0E82EC3EF04D
:107F7E00FA0E176E010E186E520E82EC3EF086EF60
:107F8E003FF0CDEC3DF00009D8B4D0EF3FF0D2EF8A
:107F9E003FF0FCEF3FF0030E206E490E1F6E660E93
:107FAE00E82EFED71F2EFCD7202EFAD700D0FF0EBC
:107FBE00176E000E186E4C0E82EC3EF0FF0E176E12
:107FCE00000E186E520E82EC3EF0E4EC3EF0660EA1
:107FDE00206E760E1F6EC10EE82EFED71F2EFCD71A
:107FEE00202EFAD700F0FEEF3FF086EF3FF000EFC5
:027FFE0000F091
:020000040020DA
:08000000FFFFFFFFFFFFFFFF00
:020000040030CA
:0E000000FF231F3CFFBD80FF0FC00FE00F402D
:00000001FF
