:020000040000FA
:04000000A9EF3DF037
:1078F800C5841200300ED36E040ED26E000E9B6E3D
:107908001200BB68000EBC6E9E92040EBA6E120086
:107918003F065B4F666D7D077F673E38280081A86C
:1079280098EF3CF09BEF3CF0010E9CEF3CF0000E12
:10793800120081AAA2EF3CF0A5EF3CF0010EA6EFE1
:107948003CF0000E120081A4ACEF3CF0AFEF3CF02D
:10795800010EB0EF3CF0000E120081A2B6EF3CF031
:10796800B9EF3CF0010EBAEF3CF0000E1200196EB0
:1079780019C0C9FFC7B0C3EF3CF0C5EF3CF0BEEF7C
:107988003CF01200000EC76E280EC66E000EC56EC3
:10799800080ECB6E090EC86E1200000EC16E040EE2
:1079A800C06E000EC36E000EC46E0D0EC26E1200C5
:1079B800C282C2B2E2EF3CF0E4EF3CF0DDEF3CF013
:1079C800C4CF15F0166A120077EC3DF07EEC3CF05F
:1079D800F5EC3CF085EC3CF005EC3DF0D1EC3CF0EE
:1079E80012003C0EBD6E000EB66E800EB76E010E14
:1079F800B96E000EBF6E7F0EBE6EFC0E0F014917EA
:107A080012003C0E666E000E646E800E656E010EEE
:107A1800636E000E686E7F0E676EE70E0F014917E2
:107A280012008186040E196E020EE82EFED7192E5A
:107A3800FCD78196190E196EFF0EE82EFED7192E67
:107A4800FCD700F012008186030E196E980EE82EFE
:107A5800FED7192EFCD78196190E196EFF0EE82E47
:107A6800FED7192EFCD700F01200C5CF19F01F0E53
:107A78001916D8A442EF3DF044EF3DF039EF3DF040
:107A8800C7B249EF3DF04BEF3DF039EF3DF0120042
:107A98001C6E61EC3DF01C50BBEC3CF039EC3DF049
:107AA8001A50BBEC3CF039EC3DF01B50BBEC3CF001
:107AB80039EC3DF07CEC3CF012009E96C580C7B4D2
:107AC80068EF3DF06AEF3DF063EF3DF0C5CF19F088
:107AD8001F0E1916D8A473EF3DF075EF3DF063EF54
:107AE8003DF09E961200000E896E000E8A6E000E02
:107AF8008B6EDB0E926EF70E936E180E946E000E60
:107B08000F013A6F000E396F0B0E386F000E616E61
:107B1800F18E12001B6E4C0E1B18D8A496EF3DF088
:107B280098EF3DF0A1EF3DF019C067FF1AB002D001
:107B3800809A01D0808AA8EF3DF019C0BEFF1AB024
:107B480002D0809401D080841200180EF66E790E4F
:107B5800F76E000EF86E00EE01F010EE0EF0090060
:107B6800F5CFEEFFE550E150FAE100EE0FF00A0E16
:107B7800EE6AE806FDE1000EF86E00019CEF3EF0AB
:107B8800000E1A6E000E1B6E400E4CEC3DF039ECE8
:107B98003DF0010E1A6E000E1B6E400E4CEC3DF0CF
:107BA80039EC3DF0020E1A6E000E1B6E400E4CECC6
:107BB8003DF039EC3DF0050E1A6E3E0E1B6E400E80
:107BC8004CEC3DF039EC3DF0060E1A6E000E1B6EC3
:107BD800400E4CEC3DF01200090E1A6E0BC01BF063
:107BE800400E4CEC3DF0060E1E6E130E1D6EAE0ED2
:107BF800E82EFED71D2EFCD71E2EFAD7090E1A6EB8
:107C0800010E1324D96E000E1420DA6EDF501B6E9D
:107C1800400E4CEC3DF0060E1E6E130E1D6EAE0EA1
:107C2800E82EFED71D2EFCD71E2EFAD7090E1A6E87
:107C38000CC01BF0400E4CEC3DF0060E1E6E130EF1
:107C48001D6EAE0EE82EFED71D2EFCD71E2EFAD7BF
:107C5800090E1A6E010E1124D96E000E1220DA6E6A
:107C6800DF501B6E400E4CEC3DF0060E1E6E130EE0
:107C78001D6EAE0EE82EFED71D2EFCD71E2EFAD78F
:107C880012008BBA4AEF3EF04DEF3EF0010E4EEF78
:107C98003EF0000EFF0A196E193A19468B50191852
:107CA800DF0B19188B6E8BBC5CEF3EF05FEF3EF07C
:107CB800010E60EF3EF0000EFF0A196E193A1946E0
:107CC80019468B501918BF0B19188B6E020E1A6EB5
:107CD800860E196E990EE82EFED7192EFCD71A2E8D
:107CE800FAD700F08BBA7BEF3EF07EEF3EF0010E44
:107CF8007FEF3EF0000EFF0A196E193A19468B50B5
:107D08001918DF0B19188B6E8BBC8DEF3EF090EFB6
:107D18003EF0010E91EF3EF0000EFF0A196E193A7F
:107D2800194619468B501918BF0B19188B6E12007B
:107D3800E8EC3CF0C6EC3CF0C4EC3DF045EC3EF021
:107D4800E60E196E010E1A6E4C0E8EEC3DF0E60E24
:107D5800196E010E1A6E520E8EEC3DF0DCEC3CF002
:107D680016BEC0EF3EF0165009E1290E155CD8A0EA
:107D7800C0EF3EF0C2EF3EF03FEF3FF0B1EC3CF019
:107D88000009D8B4CAEF3EF0CCEF3EF0DCEF3EF08D
:107D9800FA0E196E010E1A6E4C0E8EEC3DF0690E3D
:107DA800196E010E1A6E520E8EEC3DF0A4EF3EF0E5
:107DB800A7EC3CF00009D8B4E4EF3EF0E6EF3EF063
:107DC800F6EF3EF0690E196E010E1A6E4C0E8EEC2F
:107DD8003DF0FA0E196E010E1A6E520E8EEC3DF041
:107DE800A4EF3EF081B0FBEF3EF0FDEF3EF024EF54
:107DF8003FF08B8A8B8C030E206E490E1F6E660E29
:107E0800E82EFED71F2EFCD7202EFAD700D0FA0E68
:107E1800196E000E1A6E4C0E8EEC3DF0FA0E196EAD
:107E2800000E1A6E520E8EEC3DF0820E1F6EDE0EA4
:107E3800E82EFED71F2EFCD7F0EC3DF019EF3FF0EF
:107E480015EC3DF09DEC3CF00009D8B42EEF3FF066
:107E580030EF3FF03FEF3FF08B8A134A142A030EAE
:107E6800206E8A0E1F6E560EE82EFED71F2EFCD7E8
:107E7800202EFAD78B9A16BE4DEF3FF0165007E129
:107E8800280E155CD8B04BEF3FF04DEF3FF0A4EF54
:107E98003EF0E60E196E010E1A6E4C0E8EEC3DF099
:107EA800E60E196E010E1A6E520E8EEC3DF0DCECE9
:107EB8003CF0000E106E010E0F6EF3EF3FF0E60E71
:107EC800196E010E1A6E4C0E8EEC3DF0E60E196E10
:107ED800010E1A6E520E8EEC3DF0B1EC3CF000092A
:107EE800D8B479EF3FF07BEF3FF08BEF3FF0F50E22
:107EF800196E010E1A6E4C0E8EEC3DF0690E196E5D
:107F0800010E1A6E520E8EEC3DF0F3EF3FF0A7EC27
:107F18003CF00009D8B493EF3FF095EF3FF0A5EFA0
:107F28003FF0690E196E010E1A6E4C0E8EEC3DF084
:107F3800F50E196E010E1A6E520E8EEC3DF0F3EF2F
:107F48003FF081B0AAEF3FF0ACEF3FF0D3EF3FF046
:107F58008B8A8B8C030E206E490E1F6E660EE82EE0
:107F6800FED71F2EFCD7202EFAD700D0FF0E196E91
:107F7800000E1A6E4C0E8EEC3DF0FF0E196E000EC0
:107F88001A6E520E8EEC3DF0820E1F6EDE0EE82E3B
:107F9800FED71F2EFCD7F0EC3DF0C8EF3FF027ECE2
:107FA8003DF093EC3CF00009D8B4DDEF3FF0DFEF93
:107FB8003FF0F3EF3FF08B8C114A122A020E206E2D
:107FC800A00E1F6E920EE82EFED71F2EFCD7202E75
:107FD800FAD700D08B9C000E106E000E0F6E0F04A7
:107FE8001010D8B4FAEF3FF0FCEF3FF063EF3FF02A
:087FF800A4EF3EF000EF00F0E1
:020000040020DA
:08000000FFFFFFFFFFFFFFFF00
:020000040030CA
:0E000000FF231F3CFFBF81FF0FC00FE00F402A
:00000001FF
