:020000040000FA
:0400000037EF3EF0A8
:107A4000C5841200300ED36E040ED26E000E9B6EF3
:107A50001200BB68000EBC6E9E92040EBA6E12003D
:107A60003E383F065B4F666D7D077F67280081A823
:107A70003CEF3DF03FEF3DF0010E40EF3DF0000EDA
:107A8000120081AA46EF3DF049EF3DF0010E4AEFAA
:107A90003DF0000E120081A050EF3DF053EF3DF09D
:107AA000010E54EF3DF0000E120081A45AEF3DF09C
:107AB0005DEF3DF0010E5EEF3DF0000E120081A281
:107AC00064EF3DF067EF3DF0010E68EF3DF0000E12
:107AD00012001B6E1BC0C9FFC7B071EF3DF073EF02
:107AE0003DF06CEF3DF01200000EC76E280EC66E22
:107AF000000EC56E080ECB6E090EC86E1200000E89
:107B0000C16E040EC06E000EC36E000EC46E0D0E6C
:107B1000C26E120005EC3EF022EC3DF097EC3DF019
:107B200029EC3DF0A7EC3DF07FEC3DF012003C0E5F
:107B3000BD6E000EB66E800EB76E010EB96E000EF1
:107B4000BF6E7F0EBE6EFC0E0F01491712003C0E79
:107B5000666E000E646E800E656E010E636E000E22
:107B6000686E7F0E676EE70E0F014917120000D096
:107B700000D000D000F0C282C2B2C1EF3DF0C3EF2E
:107B80003DF0BCEF3DF0C4CF17F0186A1200C5CF2E
:107B90001BF01F0E1B16D8A4D0EF3DF0D2EF3DF026
:107BA000C7EF3DF0C7B2D7EF3DF0D9EF3DF0C7EFDB
:107BB0003DF012001E6EEFEC3DF01E5069EC3DF002
:107BC000C7EC3DF01C5069EC3DF0C7EC3DF01D509A
:107BD00069EC3DF0C7EC3DF020EC3DF012009E96C4
:107BE000C580C7B4F6EF3DF0F8EF3DF0F1EF3DF0A2
:107BF000C5CF1BF01F0E1B16D8A401EF3EF003EFFC
:107C00003EF0F1EF3DF09E961200000E896E000EE0
:107C10008A6E000E8B6EDB0E926EF70E936E180E50
:107C2000946E000E0F013A6F000E396F0B0E386F15
:107C3000000E616EF18E12001D6E4C0E1D18D8A440
:107C400024EF3EF026EF3EF02FEF3EF01BC067FF23
:107C50001CB002D0809A01D0808A36EF3EF01BC063
:107C6000BEFF1CB002D0809401D080841200600E50
:107C7000F66E7A0EF76E000EF86E00EE01F010EE62
:107C80000EF00900F5CFEEFFE550E150FAE100EE0D
:107C90000FF00C0EEE6AE806FDE1000EF86E000132
:107CA0001FEF3FF0000E1C6E000E1D6E400EDAEC52
:107CB0003DF0C7EC3DF0010E1C6E000E1D6E400E37
:107CC000DAEC3DF0C7EC3DF0020E1C6E000E1D6EAE
:107CD000400EDAEC3DF0C7EC3DF0050E1C6E3E0E9A
:107CE0001D6E400EDAEC3DF0C7EC3DF0060E1C6E4A
:107CF000000E1D6E400EDAEC3DF01200090E1C6EF7
:107D000001C01DF0400EDAEC3DF0030E206E8A0E2D
:107D10001F6E560EE82EFED71F2EFCD7202EFAD748
:107D2000090E1C6E000E1124D96E000E1220DA6EA0
:107D3000DF501D6E400EDAEC3DF0030E206E8A0E11
:107D40001F6E560EE82EFED71F2EFCD7202EFAD718
:107D5000090E1C6E02C01DF0400EDAEC3DF0030E61
:107D6000206E8A0E1F6E560EE82EFED71F2EFCD7F1
:107D7000202EFAD7090E1C6E000E0F24D96E000EAD
:107D80001020DA6EDF501D6E400EDAEC3DF012006E
:107D90008BBACDEF3EF0D0EF3EF0010ED1EF3EF0CA
:107DA000000EFF0A1B6E1B3A1B468B501B18DF0B85
:107DB0001B188B6E8BBCDFEF3EF0E2EF3EF0010E46
:107DC000E3EF3EF0000EFF0A1B6E1B3A1B461B46FC
:107DD0008B501B18BF0B1B188B6E020E1C6E860E71
:107DE0001B6E990EE82EFED71B2EFCD71C2EFAD741
:107DF00000F08BBAFEEF3EF001EF3FF0010E02EF14
:107E00003FF0000EFF0A1B6E1B3A1B468B501B18DF
:107E1000DF0B1B188B6E8BBC10EF3FF013EF3FF0A6
:107E2000010E14EF3FF0000EFF0A1B6E1B3A1B46BB
:107E30001B468B501B18BF0B1B188B6E12008AEC55
:107E40003DF074EC3DF052EC3EF0C8EC3EF0FF0E1D
:107E50001B6E010E1C6E4C0E1CEC3EF0FA0E1B6EDF
:107E6000010E1C6E520E1CEC3EF0B7EC3DF018BE3D
:107E700043EF3FF0185009E1290E175CD8A043EFFB
:107E80003FF045EF3FF05EEF3FF041EC3DF0000981
:107E9000D8B44DEF3FF04FEF3FF085EF3FF08186D4
:107EA0008B8A114A122A820E216EDE0EE82EFED730
:107EB000212EFCD781968B9A85EF3FF08B8C37EC87
:107EC0003DF00009D8B467EF3FF069EF3FF085EF70
:107ED0003FF08BBC6EEF3FF071EF3FF0010E72EFA1
:107EE0003FF0000EFF0A216E213A214621468B50B9
:107EF0002118BF0B21188B6E0F4A102A820E216E9B
:107F0000DE0EE82EFED7212EFCD75FEC3DF00009F7
:107F1000D8B48DEF3FF08FEF3FF09FEF3FF0FA0EB8
:107F20001B6E010E1C6E4C0E1CEC3EF0690E1B6E9F
:107F3000010E1C6E520E1CEC3EF027EF3FF055EC8C
:107F40003DF00009D8B4A7EF3FF0A9EF3FF0B9EF3B
:107F50003FF0690E1B6E010E1C6E4C0E1CEC3EF0C9
:107F6000FA0E1B6E010E1C6E520E1CEC3EF027EF3B
:107F70003FF055EC3DF00009D8B4C1EF3FF0C3EF3E
:107F80003FF0FCEF3FF05FEC3DF00009D8B4CBEFE1
:107F90003FF0CDEF3FF0FCEF3FF04BEC3DF0000940
:107FA000D8B4D5EF3FF0D7EF3FF0FCEF3FF0030E32
:107FB000226E490E216E660EE82EFED7212EFCD7CA
:107FC000222EFAD700D0FF0E1B6E000E1C6E4C0E38
:107FD0001CEC3EF0FF0E1B6E000E1C6E520E1CECD5
:107FE0003EF0820E216EDE0EE82EFED7212EFCD74B
:107FF0007EEC3EF0F1EF3FF027EF3FF000EF00F0B6
:020000040020DA
:08000000FFFFFFFFFFFFFFFF00
:020000040030CA
:0E000000FF231F3CFFBF81FF0FC00FE00F402A
:00000001FF
