:020000040000FA
:04000000AAEF3DF036
:1078E600C5841200300ED36E040ED26E000E9B6E4F
:1078F6001200BB68000EBC6E9E92040EBA6E120099
:107906003F065B4F666D7D077F673E3832003C0061
:1079160081A890EF3CF093EF3CF0010E94EF3CF021
:10792600000E120081AA9AEF3CF09DEF3CF0010E8A
:107936009EEF3CF0000E120081A4A4EF3CF0A7EFEE
:107946003CF0010EA8EF3CF0000E120081A2AEEF53
:107956003CF0B1EF3CF0010EB2EF3CF0000E12002D
:10796600236E23C0C9FFC7B0BBEF3CF0BDEF3CF0B0
:10797600B6EF3CF01200000EC76E280EC66E000E63
:10798600C56E080ECB6E090EC86E1200000EC16ED3
:10799600040EC06E000EC36E000EC46E0D0EC26ED7
:1079A600120078EC3DF075EC3CF0E1EC3CF07CEC40
:1079B6003CF0F1EC3CF0C9EC3CF012003C0EBD6E24
:1079C600000EB66E800EB76E010EB96E000EBF6E5B
:1079D6007F0EBE6EFC0E0F01491712003C0E666E3E
:1079E600000E646E800E656E010E636E000E686E8C
:1079F6007F0E676EE70E0F014917120000D000D008
:107A060000D000F0C282C2B20BEF3DF00DEF3DF0A8
:107A160006EF3DF0C4CF0FF0106A1200C5CF23F079
:107A26001F0E2316D8A41AEF3DF01CEF3DF011EF00
:107A36003DF0C7B221EF3DF023EF3DF011EF3DF0F1
:107A460012008186040E236E0C0EE82EFED7232E1E
:107A5600FCD78196190E236EFF0EE82EFED7232E35
:107A6600FCD700F001EC3DF01200266E62EC3DF012
:107A76002650B3EC3CF011EC3DF02450B3EC3CF056
:107A860011EC3DF02550B3EC3CF011EC3DF073ECFD
:107A96003CF012008186030E236EA80EE82EFED758
:107AA600232EFCD700D08196190E236EFF0EE82EEA
:107AB600FED7232EFCD700F001EC3DF012009E9677
:107AC600C580C7B469EF3DF06BEF3DF064EF3DF064
:107AD600C5CF23F01F0E2316D8A474EF3DF076EF22
:107AE6003DF064EF3DF09E961200000E896E000E8A
:107AF6008A6E000E8B6EDB0E926EF70E936E180E6C
:107B0600946E000E0F013A6F000E396F0B0E386F30
:107B1600000E616EF18E1200256E4C0E2518D8A44B
:107B260097EF3DF099EF3DF0A2EF3DF023C067FFE0
:107B360024B002D0809A01D0808AA9EF3DF023C0FC
:107B4600BEFF24B002D0809401D080841200060EBD
:107B5600F66E790EF76E000EF86E00EE13F010EE6C
:107B660010F00900F5CFEEFFE550E150FAE100EE26
:107B760001F0120EEE6AE806FDE1000EF86E000155
:107B86009DEF3EF0000E246E000E256E400E38EC82
:107B96003DF011EC3DF0010E246E000E256E400EF8
:107BA60038EC3DF011EC3DF0020E246E000E256E11
:107BB600400E38EC3DF011EC3DF0050E246E3E0E05
:107BC600256E400E38EC3DF011EC3DF0060E246EAD
:107BD600000E256E400E38EC3DF01200090E246EA4
:107BE6001DC025F0400E38EC3DF0060E286E130E33
:107BF600276EAE0EE82EFED7272EFCD7282EFAD7F4
:107C0600090E246E130E0924D96E000E0A20DA6EB0
:107C1600DF50256E400E38EC3DF0060E286E130E32
:107C2600276EAE0EE82EFED7272EFCD7282EFAD7C3
:107C3600090E246E1EC025F0400E38EC3DF0060EEF
:107C4600286E130E276EAE0EE82EFED7272EFCD713
:107C5600282EFAD7090E246E130E0724D96E000EAD
:107C66000820DA6EDF50256E400E38EC3DF0060E29
:107C7600286E130E276EAE0EE82EFED7272EFCD7E3
:107C8600282EFAD712008BBA4BEF3EF04EEF3EF09D
:107C9600010E4FEF3EF0000EFF0A236E233A2346F5
:107CA6008B502318DF0B23188B6E8BBC5DEF3EF0D9
:107CB60060EF3EF0010E61EF3EF0000EFF0A236E0C
:107CC600233A234623468B502318BF0B23188B6E6B
:107CD600020E246E860E236E990EE82EFED7232EF4
:107CE600FCD7242EFAD700F08BBA7CEF3EF07FEF5C
:107CF6003EF0010E80EF3EF0000EFF0A236E233A9F
:107D060023468B502318DF0B23188B6E8BBC8EEF0C
:107D16003EF091EF3EF0010E92EF3EF0000EFF0AAC
:107D2600236E233A234623468B502318BF0B231872
:107D36008B6E1200D4EC3CF0BEEC3CF0C5EC3DF092
:107D460046EC3EF0FF0E236E010E246E4C0E8FECB9
:107D56003DF0FA0E236E010E246E520E8FEC3DF0AE
:107D660001EC3DF010BEC1EF3EF0105009E13D0EB2
:107D76000F5CD8A0C1EF3EF0C3EF3EF040EF3FF0FE
:107D8600A9EC3CF00009D8B4CBEF3EF0CDEF3EF0C5
:107D9600DDEF3EF0FA0E236E010E246E4C0E8FECD4
:107DA6003DF0690E236E010E246E520E8FEC3DF0EF
:107DB600A5EF3EF09FEC3CF00009D8B4E5EF3EF0AD
:107DC600E7EF3EF0F7EF3EF0690E236E010E246EEC
:107DD6004C0E8FEC3DF0FA0E236E010E246E520E01
:107DE6008FEC3DF0A5EF3EF081B0FCEF3EF0FEEFEC
:107DF6003EF025EF3FF08B8A8B8C030E2A6E490EE0
:107E0600296E660EE82EFED7292EFCD72A2EFAD723
:107E160000D0FF0E236E000E246E4C0E8FEC3DF04C
:107E2600FF0E236E000E246E520E8FEC3DF0820E76
:107E3600296EDE0EE82EFED7292EFCD7F1EC3DF09A
:107E46001AEF3FF024EC3DF095EC3CF00009D8B475
:107E56002FEF3FF031EF3FF040EF3FF08B8A094ABA
:107E66000A2A060E2A6E130E296EAE0EE82EFED7CD
:107E7600292EFCD72A2EFAD78B9A10BE4EEF3FF04A
:107E8600105007E13C0E0F5CD8B04CEF3FF04EEFC0
:107E96003FF0A5EF3EF0FF0E236E010E246E4C0E52
:107EA6008FEC3DF0FA0E236E010E246E520E8FEC0F
:107EB6003DF001EC3DF0000E066E010E056EF3EF8F
:107EC6003FF0FF0E236E010E246E4C0E8FEC3DF03C
:107ED600FA0E236E010E246E520E8FEC3DF0A9ECC5
:107EE6003CF00009D8B47AEF3FF07CEF3FF08CEF1E
:107EF6003FF0FA0E236E010E246E4C0E8FEC3DF011
:107F0600690E236E010E246E520E8FEC3DF0F3EFD8
:107F16003FF09FEC3CF00009D8B494EF3FF096EFA9
:107F26003FF0A6EF3FF0690E236E010E246E4C0E55
:107F36008FEC3DF0FA0E236E010E246E520E8FEC7E
:107F46003DF0F3EF3FF081B0ABEF3FF0ADEF3FF028
:107F5600D4EF3FF08B8A8B8C030E2A6E490E296E66
:107F6600660EE82EFED7292EFCD72A2EFAD700D089
:107F7600FF0E236E000E246E4C0E8FEC3DF0FF0EAE
:107F8600236E000E246E520E8FEC3DF0820E296E8B
:107F9600DE0EE82EFED7292EFCD7F1EC3DF0C9EF18
:107FA6003FF04DEC3DF08BEC3CF00009D8B4DEEF31
:107FB6003FF0E0EF3FF0F3EF3FF08B8C074A082AE3
:107FC600060E2A6E130E296EAE0EE82EFED7292E49
:107FD600FCD72A2EFAD78B9C000E066E000E056E75
:107FE60005040610D8B4FAEF3FF0FCEF3FF064EF5B
:0A7FF6003FF0A5EF3EF000EF00F0B1
:020000040020DA
:08000000FFFFFFFFFFFFFFFF00
:020000040030CA
:0E000000FF231F3CFFBF81FF0FC00FE00F402A
:00000001FF
